{
  "_format": "hh-sol-artifact-1",
  "contractName": "EncryptData",
  "sourceName": "exercises/03_encypt_euint32.sol",
  "abi": [
    {
      "inputs": [
        {
          "internalType": "uint32",
          "name": "myValue",
          "type": "uint32"
        }
      ],
      "name": "encrypt",
      "outputs": [
        {
          "internalType": "euint32",
          "name": "",
          "type": "bytes32"
        }
      ],
      "stateMutability": "pure",
      "type": "function"
    }
  ],
  "bytecode": "0x608060405234801561001057600080fd5b50610151806100206000396000f3fe608060405234801561001057600080fd5b506004361061002b5760003560e01c8063675ec6f014610030575b600080fd5b61004a600480360381019061004591906100a8565b610060565b6040516100579190610100565b60405180910390f35b6000919050565b600080fd5b600063ffffffff82169050919050565b6100858161006c565b811461009057600080fd5b50565b6000813590506100a28161007c565b92915050565b6000602082840312156100be576100bd610067565b5b60006100cc84828501610093565b91505092915050565b6000819050919050565b60006100ea826100d5565b9050919050565b6100fa816100df565b82525050565b600060208201905061011560008301846100f1565b9291505056fea26469706673582212206eaa3d6a4b5dac6216fdc679998bbe44e861a82a77c9363769e65f9c4493c66464736f6c63430008180033",
  "linkReferences": {},
  "deployedLinkReferences": {}
}