{
  "_format": "hh-sol-artifact-1",
  "contractName": "EncryptData",
  "sourceName": "exercises/03_encrypt_euint32.sol",
  "abi": [
    {
      "inputs": [
        {
          "internalType": "uint32",
          "name": "myValue",
          "type": "uint32"
        }
      ],
      "name": "encrypt",
      "outputs": [
        {
          "internalType": "euint32",
          "name": "",
          "type": "bytes32"
        }
      ],
      "stateMutability": "nonpayable",
      "type": "function"
    }
  ],
  "bytecode": "0x608060405234801561001057600080fd5b50610368806100206000396000f3fe608060405234801561001057600080fd5b506004361061002b5760003560e01c8063675ec6f014610030575b600080fd5b61004a600480360381019061004591906101ad565b610060565b6040516100579190610205565b60405180910390f35b600061006b82610072565b9050919050565b60006100858263ffffffff16600461008c565b9050919050565b600080610097610144565b90508060010160009054906101000a900473ffffffffffffffffffffffffffffffffffffffff1673ffffffffffffffffffffffffffffffffffffffff16639cd07acb85856040518363ffffffff1660e01b81526004016100f89291906102b0565b6020604051808303816000875af1158015610117573d6000803e3d6000fd5b505050506040513d601f19601f8201168201806040525081019061013b9190610305565b91505092915050565b60007f9e7b61f58c47dc699ac88507c4f5bb9f121c03808c5676a8078fe583e4649700905090565b600080fd5b600063ffffffff82169050919050565b61018a81610171565b811461019557600080fd5b50565b6000813590506101a781610181565b92915050565b6000602082840312156101c3576101c261016c565b5b60006101d184828501610198565b91505092915050565b6000819050919050565b60006101ef826101da565b9050919050565b6101ff816101e4565b82525050565b600060208201905061021a60008301846101f6565b92915050565b6000819050919050565b61023381610220565b82525050565b7f4e487b7100000000000000000000000000000000000000000000000000000000600052602160045260246000fd5b6054811061027957610278610239565b5b50565b600081905061028a82610268565b919050565b600061029a8261027c565b9050919050565b6102aa8161028f565b82525050565b60006040820190506102c5600083018561022a565b6102d260208301846102a1565b9392505050565b6102e2816101da565b81146102ed57600080fd5b50565b6000815190506102ff816102d9565b92915050565b60006020828403121561031b5761031a61016c565b5b6000610329848285016102f0565b9150509291505056fea2646970667358221220740868eba9e74acfa062861038ee0fdb459360debf5505252fc1eacdc2b0cd2b64736f6c63430008180033",
  "linkReferences": {},
  "deployedLinkReferences": {}
}