{
  "_format": "hh-sol-artifact-1",
  "contractName": "EncryptedCounter",
  "sourceName": "exercises/10_encrypted_counter.sol",
  "abi": [
    {
      "inputs": [],
      "stateMutability": "nonpayable",
      "type": "constructor"
    },
    {
      "inputs": [
        {
          "internalType": "uint32",
          "name": "value",
          "type": "uint32"
        }
      ],
      "name": "add",
      "outputs": [],
      "stateMutability": "nonpayable",
      "type": "function"
    },
    {
      "inputs": [],
      "name": "getCounter",
      "outputs": [
        {
          "internalType": "euint32",
          "name": "",
          "type": "bytes32"
        }
      ],
      "stateMutability": "view",
      "type": "function"
    },
    {
      "inputs": [],
      "name": "increment",
      "outputs": [],
      "stateMutability": "nonpayable",
      "type": "function"
    }
  ],
  "bytecode": "0x608060405234801561001057600080fd5b50610182806100206000396000f3fe608060405234801561001057600080fd5b50600436106100415760003560e01c80638ada066e14610046578063cbe3a07214610064578063d09de08a14610080575b600080fd5b61004e61008a565b60405161005b91906100c3565b60405180910390f35b61007e6004803603810190610079919061011f565b610093565b005b610088610096565b005b60008054905090565b50565b565b6000819050919050565b60006100ad82610098565b9050919050565b6100bd816100a2565b82525050565b60006020820190506100d860008301846100b4565b92915050565b600080fd5b600063ffffffff82169050919050565b6100fc816100e3565b811461010757600080fd5b50565b600081359050610119816100f3565b92915050565b600060208284031215610135576101346100de565b5b60006101438482850161010a565b9150509291505056fea26469706673582212200399fa6e02d05dd13a39b240d02110f8fe60e280b6870c443f5cbf8d2f96415964736f6c63430008180033",
  "linkReferences": {},
  "deployedLinkReferences": {}
}