{
  "_format": "hh-sol-artifact-1",
  "contractName": "EncryptedCounter",
  "sourceName": "exercises/10_encrypted_counter.sol",
  "abi": [
    {
      "inputs": [],
      "stateMutability": "nonpayable",
      "type": "constructor"
    },
    {
      "inputs": [
        {
          "internalType": "uint32",
          "name": "value",
          "type": "uint32"
        }
      ],
      "name": "add",
      "outputs": [],
      "stateMutability": "nonpayable",
      "type": "function"
    },
    {
      "inputs": [],
      "name": "getCounter",
      "outputs": [
        {
          "internalType": "euint32",
          "name": "",
          "type": "bytes32"
        }
      ],
      "stateMutability": "view",
      "type": "function"
    },
    {
      "inputs": [],
      "name": "increment",
      "outputs": [],
      "stateMutability": "nonpayable",
      "type": "function"
    }
  ],
  "bytecode": "0x608060405234801561001057600080fd5b50610021600061002c60201b60201c565b600081905550610253565b60006100458263ffffffff16600461004c60201b60201c565b9050919050565b60008061005d61010a60201b60201c565b90508060010160009054906101000a900473ffffffffffffffffffffffffffffffffffffffff1673ffffffffffffffffffffffffffffffffffffffff16639cd07acb85856040518363ffffffff1660e01b81526004016100be9291906101c2565b6020604051808303816000875af11580156100dd573d6000803e3d6000fd5b505050506040513d601f19601f820116820180604052508101906101019190610226565b91505092915050565b60007f9e7b61f58c47dc699ac88507c4f5bb9f121c03808c5676a8078fe583e4649700905090565b6000819050919050565b61014581610132565b82525050565b7f4e487b7100000000000000000000000000000000000000000000000000000000600052602160045260246000fd5b6054811061018b5761018a61014b565b5b50565b600081905061019c8261017a565b919050565b60006101ac8261018e565b9050919050565b6101bc816101a1565b82525050565b60006040820190506101d7600083018561013c565b6101e460208301846101b3565b9392505050565b600080fd5b6000819050919050565b610203816101f0565b811461020e57600080fd5b50565b600081519050610220816101fa565b92915050565b60006020828403121561023c5761023b6101eb565b5b600061024a84828501610211565b91505092915050565b610182806102626000396000f3fe608060405234801561001057600080fd5b50600436106100415760003560e01c80638ada066e14610046578063cbe3a07214610064578063d09de08a14610080575b600080fd5b61004e61008a565b60405161005b91906100c3565b60405180910390f35b61007e6004803603810190610079919061011f565b610093565b005b610088610096565b005b60008054905090565b50565b565b6000819050919050565b60006100ad82610098565b9050919050565b6100bd816100a2565b82525050565b60006020820190506100d860008301846100b4565b92915050565b600080fd5b600063ffffffff82169050919050565b6100fc816100e3565b811461010757600080fd5b50565b600081359050610119816100f3565b92915050565b600060208284031215610135576101346100de565b5b60006101438482850161010a565b9150509291505056fea2646970667358221220043d8628e364198d9ef7c652b8dddf943f5093d2413d1cfc178b8fbd02a9592464736f6c63430008180033",
  "linkReferences": {},
  "deployedLinkReferences": {}
}