{
  "_format": "hh-sol-artifact-1",
  "contractName": "MinMaxOperations",
  "sourceName": "exercises/09_min_max.sol",
  "abi": [
    {
      "inputs": [
        {
          "internalType": "euint32",
          "name": "a",
          "type": "bytes32"
        },
        {
          "internalType": "euint32",
          "name": "b",
          "type": "bytes32"
        }
      ],
      "name": "maximum",
      "outputs": [
        {
          "internalType": "euint32",
          "name": "",
          "type": "bytes32"
        }
      ],
      "stateMutability": "nonpayable",
      "type": "function"
    },
    {
      "inputs": [
        {
          "internalType": "euint32",
          "name": "a",
          "type": "bytes32"
        },
        {
          "internalType": "euint32",
          "name": "b",
          "type": "bytes32"
        }
      ],
      "name": "minimum",
      "outputs": [
        {
          "internalType": "euint32",
          "name": "",
          "type": "bytes32"
        }
      ],
      "stateMutability": "nonpayable",
      "type": "function"
    }
  ],
  "bytecode": "0x608060405234801561001057600080fd5b50610198806100206000396000f3fe608060405234801561001057600080fd5b50600436106100365760003560e01c80632fb8998d1461003b578063c44f2bcf1461006b575b600080fd5b610055600480360381019061005091906100e6565b61009b565b6040516100629190610147565b60405180910390f35b610085600480360381019061008091906100e6565b6100a3565b6040516100929190610147565b60405180910390f35b600092915050565b600092915050565b600080fd5b6000819050919050565b6100c3816100b0565b81146100ce57600080fd5b50565b6000813590506100e0816100ba565b92915050565b600080604083850312156100fd576100fc6100ab565b5b600061010b858286016100d1565b925050602061011c858286016100d1565b9150509250929050565b6000610131826100b0565b9050919050565b61014181610126565b82525050565b600060208201905061015c6000830184610138565b9291505056fea26469706673582212200c9b2874c3be3a917e87c36549545a1540c013d0b2de808b52982534fb37448664736f6c63430008180033",
  "linkReferences": {},
  "deployedLinkReferences": {}
}