{
  "_format": "hh-sol-artifact-1",
  "contractName": "ConfidentialComparison",
  "sourceName": "exercises/05_comparison.sol",
  "abi": [
    {
      "inputs": [
        {
          "internalType": "euint32",
          "name": "a",
          "type": "bytes32"
        },
        {
          "internalType": "euint32",
          "name": "b",
          "type": "bytes32"
        }
      ],
      "name": "isGreaterOrEqual",
      "outputs": [
        {
          "internalType": "ebool",
          "name": "",
          "type": "bytes32"
        }
      ],
      "stateMutability": "nonpayable",
      "type": "function"
    }
  ],
  "bytecode": "0x608060405234801561001057600080fd5b50610520806100206000396000f3fe608060405234801561001057600080fd5b506004361061002b5760003560e01c80639e6ed67414610030575b600080fd5b61004a600480360381019061004591906102db565b610060565b604051610057919061033c565b60405180910390f35b600061006c8383610074565b905092915050565b600061007f836100be565b6100905761008d60006100ce565b92505b610099826100be565b6100aa576100a760006100ce565b91505b6100b6838360006100e8565b905092915050565b60008060001b8214159050919050565b60006100e18263ffffffff1660046101c0565b9050919050565b60008082156100fd57600160f81b9050610105565b600060f81b90505b600061010f610278565b90508060010160009054906101000a900473ffffffffffffffffffffffffffffffffffffffff1673ffffffffffffffffffffffffffffffffffffffff16631391547f8787856040518463ffffffff1660e01b8152600401610172939291906103a1565b6020604051808303816000875af1158015610191573d6000803e3d6000fd5b505050506040513d601f19601f820116820180604052508101906101b59190610404565b925050509392505050565b6000806101cb610278565b90508060010160009054906101000a900473ffffffffffffffffffffffffffffffffffffffff1673ffffffffffffffffffffffffffffffffffffffff16639cd07acb85856040518363ffffffff1660e01b815260040161022c9291906104c1565b6020604051808303816000875af115801561024b573d6000803e3d6000fd5b505050506040513d601f19601f8201168201806040525081019061026f9190610404565b91505092915050565b60007f9e7b61f58c47dc699ac88507c4f5bb9f121c03808c5676a8078fe583e4649700905090565b600080fd5b6000819050919050565b6102b8816102a5565b81146102c357600080fd5b50565b6000813590506102d5816102af565b92915050565b600080604083850312156102f2576102f16102a0565b5b6000610300858286016102c6565b9250506020610311858286016102c6565b9150509250929050565b6000610326826102a5565b9050919050565b6103368161031b565b82525050565b6000602082019050610351600083018461032d565b92915050565b610360816102a5565b82525050565b60007fff0000000000000000000000000000000000000000000000000000000000000082169050919050565b61039b81610366565b82525050565b60006060820190506103b66000830186610357565b6103c36020830185610357565b6103d06040830184610392565b949350505050565b6103e1816102a5565b81146103ec57600080fd5b50565b6000815190506103fe816103d8565b92915050565b60006020828403121561041a576104196102a0565b5b6000610428848285016103ef565b91505092915050565b6000819050919050565b61044481610431565b82525050565b7f4e487b7100000000000000000000000000000000000000000000000000000000600052602160045260246000fd5b6054811061048a5761048961044a565b5b50565b600081905061049b82610479565b919050565b60006104ab8261048d565b9050919050565b6104bb816104a0565b82525050565b60006040820190506104d6600083018561043b565b6104e360208301846104b2565b939250505056fea2646970667358221220d6598f92535764918c5c1fada2606e05144cd334c616bbf15d2083dcf5d9f48064736f6c63430008180033",
  "linkReferences": {},
  "deployedLinkReferences": {}
}