{
  "_format": "hh-sol-artifact-1",
  "contractName": "BooleanOperations",
  "sourceName": "exercises/11_boolean_operations.sol",
  "abi": [
    {
      "inputs": [
        {
          "internalType": "ebool",
          "name": "a",
          "type": "bytes32"
        },
        {
          "internalType": "ebool",
          "name": "b",
          "type": "bytes32"
        }
      ],
      "name": "andOperation",
      "outputs": [
        {
          "internalType": "ebool",
          "name": "",
          "type": "bytes32"
        }
      ],
      "stateMutability": "nonpayable",
      "type": "function"
    },
    {
      "inputs": [
        {
          "internalType": "ebool",
          "name": "a",
          "type": "bytes32"
        }
      ],
      "name": "notOperation",
      "outputs": [
        {
          "internalType": "ebool",
          "name": "",
          "type": "bytes32"
        }
      ],
      "stateMutability": "nonpayable",
      "type": "function"
    },
    {
      "inputs": [
        {
          "internalType": "ebool",
          "name": "a",
          "type": "bytes32"
        },
        {
          "internalType": "ebool",
          "name": "b",
          "type": "bytes32"
        }
      ],
      "name": "orOperation",
      "outputs": [
        {
          "internalType": "ebool",
          "name": "",
          "type": "bytes32"
        }
      ],
      "stateMutability": "nonpayable",
      "type": "function"
    },
    {
      "inputs": [
        {
          "internalType": "ebool",
          "name": "a",
          "type": "bytes32"
        },
        {
          "internalType": "ebool",
          "name": "b",
          "type": "bytes32"
        }
      ],
      "name": "xorOperation",
      "outputs": [
        {
          "internalType": "ebool",
          "name": "",
          "type": "bytes32"
        }
      ],
      "stateMutability": "nonpayable",
      "type": "function"
    }
  ],
  "bytecode": "0x608060405234801561001057600080fd5b5061024a806100206000396000f3fe608060405234801561001057600080fd5b506004361061004c5760003560e01c8063118dd252146100515780634ffb2a18146100815780636b591f59146100b157806386fadd0f146100e1575b600080fd5b61006b6004803603810190610066919061016b565b610111565b60405161007891906101cc565b60405180910390f35b61009b6004803603810190610096919061016b565b610119565b6040516100a891906101cc565b60405180910390f35b6100cb60048036038101906100c691906101e7565b610121565b6040516100d891906101cc565b60405180910390f35b6100fb60048036038101906100f6919061016b565b610128565b60405161010891906101cc565b60405180910390f35b600092915050565b600092915050565b6000919050565b600092915050565b600080fd5b6000819050919050565b61014881610135565b811461015357600080fd5b50565b6000813590506101658161013f565b92915050565b6000806040838503121561018257610181610130565b5b600061019085828601610156565b92505060206101a185828601610156565b9150509250929050565b60006101b682610135565b9050919050565b6101c6816101ab565b82525050565b60006020820190506101e160008301846101bd565b92915050565b6000602082840312156101fd576101fc610130565b5b600061020b84828501610156565b9150509291505056fea26469706673582212206cfca6a79457145e2a406520ed30be23dd3c8a8eb7921add7ebc5c94f161019d64736f6c63430008180033",
  "linkReferences": {},
  "deployedLinkReferences": {}
}