{
  "_format": "hh-sol-artifact-1",
  "contractName": "DecryptValue",
  "sourceName": "exercises/12_decrypt_value.sol",
  "abi": [
    {
      "inputs": [],
      "stateMutability": "nonpayable",
      "type": "constructor"
    },
    {
      "inputs": [],
      "name": "getEncryptedValue",
      "outputs": [
        {
          "internalType": "euint32",
          "name": "",
          "type": "bytes32"
        }
      ],
      "stateMutability": "view",
      "type": "function"
    },
    {
      "inputs": [],
      "name": "revealToOwner",
      "outputs": [
        {
          "internalType": "uint32",
          "name": "",
          "type": "uint32"
        }
      ],
      "stateMutability": "view",
      "type": "function"
    },
    {
      "inputs": [
        {
          "internalType": "uint32",
          "name": "newValue",
          "type": "uint32"
        }
      ],
      "name": "setSecretValue",
      "outputs": [],
      "stateMutability": "nonpayable",
      "type": "function"
    }
  ],
  "bytecode": "0x608060405234801561001057600080fd5b5033600160006101000a81548173ffffffffffffffffffffffffffffffffffffffff021916908373ffffffffffffffffffffffffffffffffffffffff160217905550610062602a61006d60201b60201c565b600081905550610294565b60006100868263ffffffff16600461008d60201b60201c565b9050919050565b60008061009e61014b60201b60201c565b90508060010160009054906101000a900473ffffffffffffffffffffffffffffffffffffffff1673ffffffffffffffffffffffffffffffffffffffff16639cd07acb85856040518363ffffffff1660e01b81526004016100ff929190610203565b6020604051808303816000875af115801561011e573d6000803e3d6000fd5b505050506040513d601f19601f820116820180604052508101906101429190610267565b91505092915050565b60007f9e7b61f58c47dc699ac88507c4f5bb9f121c03808c5676a8078fe583e4649700905090565b6000819050919050565b61018681610173565b82525050565b7f4e487b7100000000000000000000000000000000000000000000000000000000600052602160045260246000fd5b605481106101cc576101cb61018c565b5b50565b60008190506101dd826101bb565b919050565b60006101ed826101cf565b9050919050565b6101fd816101e2565b82525050565b6000604082019050610218600083018561017d565b61022560208301846101f4565b9392505050565b600080fd5b6000819050919050565b61024481610231565b811461024f57600080fd5b50565b6000815190506102618161023b565b92915050565b60006020828403121561027d5761027c61022c565b5b600061028b84828501610252565b91505092915050565b610418806102a36000396000f3fe608060405234801561001057600080fd5b50600436106100415760003560e01c80639b3b4312146100465780639c94f98214610064578063e2a11be414610080575b600080fd5b61004e61009e565b60405161005b91906101fa565b60405180910390f35b61007e60048036038101906100799190610256565b6100a7565b005b61008861013a565b6040516100959190610292565b60405180910390f35b60008054905090565b600160009054906101000a900473ffffffffffffffffffffffffffffffffffffffff1673ffffffffffffffffffffffffffffffffffffffff163373ffffffffffffffffffffffffffffffffffffffff1614610137576040517f08c379a000000000000000000000000000000000000000000000000000000000815260040161012e90610330565b60405180910390fd5b50565b6000600160009054906101000a900473ffffffffffffffffffffffffffffffffffffffff1673ffffffffffffffffffffffffffffffffffffffff163373ffffffffffffffffffffffffffffffffffffffff16146101cc576040517f08c379a00000000000000000000000000000000000000000000000000000000081526004016101c3906103c2565b60405180910390fd5b90565b6000819050919050565b60006101e4826101cf565b9050919050565b6101f4816101d9565b82525050565b600060208201905061020f60008301846101eb565b92915050565b600080fd5b600063ffffffff82169050919050565b6102338161021a565b811461023e57600080fd5b50565b6000813590506102508161022a565b92915050565b60006020828403121561026c5761026b610215565b5b600061027a84828501610241565b91505092915050565b61028c8161021a565b82525050565b60006020820190506102a76000830184610283565b92915050565b600082825260208201905092915050565b7f4170656e6173206f20646f6e6f20706f646520646566696e6972206f2076616c60008201527f6f72000000000000000000000000000000000000000000000000000000000000602082015250565b600061031a6022836102ad565b9150610325826102be565b604082019050919050565b600060208201905081810360008301526103498161030d565b9050919050565b7f4170656e6173206f20646f6e6f20706f646520726576656c6172206f2076616c60008201527f6f72000000000000000000000000000000000000000000000000000000000000602082015250565b60006103ac6022836102ad565b91506103b782610350565b604082019050919050565b600060208201905081810360008301526103db8161039f565b905091905056fea2646970667358221220163ce9f6e947708a6f68f0c204d3b010536ccc646a757e839376e49f0d96965764736f6c63430008180033",
  "linkReferences": {},
  "deployedLinkReferences": {}
}