{
  "_format": "hh-sol-artifact-1",
  "contractName": "ConfidentialLogic",
  "sourceName": "exercises/06_select_statement.sol",
  "abi": [
    {
      "inputs": [
        {
          "internalType": "ebool",
          "name": "condition",
          "type": "bytes32"
        },
        {
          "internalType": "euint32",
          "name": "ifTrueValue",
          "type": "bytes32"
        },
        {
          "internalType": "euint32",
          "name": "ifFalseValue",
          "type": "bytes32"
        }
      ],
      "name": "conditionalSelect",
      "outputs": [
        {
          "internalType": "euint32",
          "name": "",
          "type": "bytes32"
        }
      ],
      "stateMutability": "nonpayable",
      "type": "function"
    }
  ],
  "bytecode": "0x608060405234801561001057600080fd5b5061033a806100206000396000f3fe608060405234801561001057600080fd5b506004361061002b5760003560e01c8063ae00a8b814610030575b600080fd5b61004a600480360381019061004591906101d6565b610060565b604051610057919061024a565b60405180910390f35b600061006d848484610076565b90509392505050565b600061008384848461008c565b90509392505050565b600080610097610147565b90508060010160009054906101000a900473ffffffffffffffffffffffffffffffffffffffff1673ffffffffffffffffffffffffffffffffffffffff16637702dcff8686866040518463ffffffff1660e01b81526004016100fa93929190610274565b6020604051808303816000875af1158015610119573d6000803e3d6000fd5b505050506040513d601f19601f8201168201806040525081019061013d91906102d7565b9150509392505050565b60007f9e7b61f58c47dc699ac88507c4f5bb9f121c03808c5676a8078fe583e4649700905090565b600080fd5b6000819050919050565b61018781610174565b811461019257600080fd5b50565b6000813590506101a48161017e565b92915050565b6101b381610174565b81146101be57600080fd5b50565b6000813590506101d0816101aa565b92915050565b6000806000606084860312156101ef576101ee61016f565b5b60006101fd86828701610195565b935050602061020e868287016101c1565b925050604061021f868287016101c1565b9150509250925092565b600061023482610174565b9050919050565b61024481610229565b82525050565b600060208201905061025f600083018461023b565b92915050565b61026e81610174565b82525050565b60006060820190506102896000830186610265565b6102966020830185610265565b6102a36040830184610265565b949350505050565b6102b481610174565b81146102bf57600080fd5b50565b6000815190506102d1816102ab565b92915050565b6000602082840312156102ed576102ec61016f565b5b60006102fb848285016102c2565b9150509291505056fea2646970667358221220fff3d9e61ce8e5226209d5489c811a5c783e16243dfe270ace7cb79b09ac1c2664736f6c63430008180033",
  "linkReferences": {},
  "deployedLinkReferences": {}
}