{
  "_format": "hh-sol-artifact-1",
  "contractName": "ConfidentialLogic",
  "sourceName": "exercises/06_select_statement.sol",
  "abi": [
    {
      "inputs": [
        {
          "internalType": "ebool",
          "name": "condition",
          "type": "bytes32"
        },
        {
          "internalType": "euint32",
          "name": "ifTrueValue",
          "type": "bytes32"
        },
        {
          "internalType": "euint32",
          "name": "ifFalseValue",
          "type": "bytes32"
        }
      ],
      "name": "conditionalSelect",
      "outputs": [
        {
          "internalType": "euint32",
          "name": "",
          "type": "bytes32"
        }
      ],
      "stateMutability": "pure",
      "type": "function"
    }
  ],
  "bytecode": "0x608060405234801561001057600080fd5b50610195806100206000396000f3fe608060405234801561001057600080fd5b506004361061002b5760003560e01c8063ae00a8b814610030575b600080fd5b61004a600480360381019061004591906100d0565b610060565b6040516100579190610144565b60405180910390f35b60009392505050565b600080fd5b6000819050919050565b6100818161006e565b811461008c57600080fd5b50565b60008135905061009e81610078565b92915050565b6100ad8161006e565b81146100b857600080fd5b50565b6000813590506100ca816100a4565b92915050565b6000806000606084860312156100e9576100e8610069565b5b60006100f78682870161008f565b9350506020610108868287016100bb565b9250506040610119868287016100bb565b9150509250925092565b600061012e8261006e565b9050919050565b61013e81610123565b82525050565b60006020820190506101596000830184610135565b9291505056fea2646970667358221220a6a5dd483a2db327ea2e3485d6ccf51e8ba4401a01241f84fc0427620736cd1a64736f6c63430008180033",
  "linkReferences": {},
  "deployedLinkReferences": {}
}