{
  "_format": "hh-sol-artifact-1",
  "contractName": "HomomorphicMultiply",
  "sourceName": "exercises/07_multiply_euints.sol",
  "abi": [
    {
      "inputs": [
        {
          "internalType": "euint32",
          "name": "a",
          "type": "bytes32"
        },
        {
          "internalType": "euint32",
          "name": "b",
          "type": "bytes32"
        }
      ],
      "name": "multiply",
      "outputs": [
        {
          "internalType": "euint32",
          "name": "",
          "type": "bytes32"
        }
      ],
      "stateMutability": "nonpayable",
      "type": "function"
    }
  ],
  "bytecode": "0x608060405234801561001057600080fd5b50610155806100206000396000f3fe608060405234801561001057600080fd5b506004361061002b5760003560e01c8063eea47fb114610030575b600080fd5b61004a600480360381019061004591906100a3565b610060565b6040516100579190610104565b60405180910390f35b600092915050565b600080fd5b6000819050919050565b6100808161006d565b811461008b57600080fd5b50565b60008135905061009d81610077565b92915050565b600080604083850312156100ba576100b9610068565b5b60006100c88582860161008e565b92505060206100d98582860161008e565b9150509250929050565b60006100ee8261006d565b9050919050565b6100fe816100e3565b82525050565b600060208201905061011960008301846100f5565b9291505056fea2646970667358221220afb9080f1dc0dfa50e382dad13c968b0d28623f32cb59a1ffa30ff91e736105864736f6c63430008180033",
  "linkReferences": {},
  "deployedLinkReferences": {}
}